:060000000A128A11142906
:10000800F000030EF1000B1912200C1864208C1854
:100018006F20710E8300F00E700E09000313831217
:10002800FE3081000B110810881008118811081281
:1000380088120813881323183128A3183528231980
:100048003928A3193D28231A4128A31A4528231B18
:1000580049282508870008144D2826088700881491
:10006800502827088700081553282808870088156E
:10007800562829088700081659282A08870088164C
:100088005C282B08870008175F282C08870088172A
:1000980062280130A30608000330A30608000630D2
:1000A800A30608000C30A30608001830A3060800B1
:1000B8003030A30608006030A3060800A30108003A
:1000C80003138312EE308E0085308F000C10BB03B3
:1000D800BC03BD03080003138316F5309200031315
:1000E80083128C1041187A28411408004110080026
:100200008A010A140F3982073F3406345B344F34B5
:1002100066346D347D3407347F346F3477347C3406
:1002200039345E3479347134F3213D220922442279
:1002300018222A220F30C500BB00BC001430C600B3
:100240000F30C7002330BD000A30BE000A30BF00A7
:100250000A30C00042140313831206184621D92223
:10026000EF2242185322C218632242197122C21986
:100270008122421A8F22C21A9D22421BAD22C21B2A
:10028000BB224318C9222D1C66296A290618462953
:10029000AD0A080086184A29A00A5E212008080035
:1002A00006195029A0035621200808000930200211
:1002B00003195B2908001430A00008001530200243
:1002C0000319632908000A30A0000800AD1872293C
:1002D0006E292D29AD1876297A292D292D19BD29A8
:1002E0007E292D292D19C72997292D292D19C7298F
:1002F000AA292D292D19C72984292D2909108910EA
:100300000911AB01AC012D293E08A0000914891088
:10031000091186184A21061950212008BE00BA008A
:10032000E0212E08B2003408B80002232D293F082E
:10033000A00009108914091186184A2106195021B4
:100340002008BF00BA00E0212E08B2003408B8002F
:1003500002232D294008A0000910891009158618CC
:100360004A21061950212008C000BA00E0212E08B9
:10037000B2003408B80002232D29AB01AC010914E6
:10038000891409158618C9210619DC212D29AD010A
:100390002D298618C929AD014310C20142148501D7
:1003A00086113E08C500BB00BC003F08C6004507DB
:1003B000BD004008C7002D290619DC29AD012D29F3
:1003C000B4010A303A020318B40A0318BA00031839
:1003D000E129EB210800AE010130BA020318AE0A90
:1003E000031C0800EC2903178316880189010313F5
:1003F0008316850106148614061586118701880167
:10040000890103138312850186018701880189010F
:100410000800031383168112811101158114011440
:100420000313831203138312FE3081000B110800A3
:1004300003138312101490109011101690161013BD
:100440000313831203138312EE308E0085308F0066
:100450000C100800031383129214121412151217B1
:100460009216121692150313831603138316F53092
:100470009200031383128C100800031383160F12CB
:100480008F120F170F140800031383128B170B170B
:100490008B160B11031383160C148C140313831285
:1004A0000C108C100800D922EF228611051085133C
:1004B00005158515051706303C0203196022080052
:1004C0004210C2140800D922EF22411C0511411824
:1004D000051503303C0203196E220800C2104215B4
:1004E0000800D922EF220511851446083D020319A0
:1004F0007A2208004211C2154608BC004707BB001B
:100500000800D922EF2285108511051485160630C2
:100510003D0203198C220800C21142160800D9229C
:10052000EF22411C85124118851603303D02031944
:100530009A2208004212C2160800D922EF22851220
:10054000051647083B020319A6220800C2124217EB
:100550004708BD004507BC000800D922EF2205125C
:1005600005138515861506303B020319B8220800CD
:100570004213C2170800D922EF22411C86114118EC
:10058000861503303B020319C6220800C213431428
:100590000800D922EF228611851745083C0203196D
:1005A000D2220800431042144508BB004607BD0094
:1005B00008003B08BA00E0212E08AF003408B5005F
:1005C0003C08BA00E0212E08B0003408B6003D080F
:1005D000BA00E0212E08B1003408B7000800300846
:1005E0000021A70036080021A80031080021A90039
:1005F00037080021AA002F080021A5003508002196
:10060000A600080032080021AB0038080021AC0029
:020610000800E0
:04400E00C430FF3F7C
:00000001FF
