:060000000A128A11142906
:10000800F000030EF1000B1912200C1864208C1854
:100018006F20710E8300F00E700E09000313831217
:10002800FE3081000B110810881008118811081281
:1000380088120813881323183128A3183528231980
:100048003928A3193D28231A4128A31A4528231B18
:1000580049282508870008144D2826088700881491
:10006800502827088700081553282808870088156E
:10007800562829088700081659282A08870088164C
:100088005C282B08870008175F282C08870088172A
:1000980062280130A30608000330A30608000630D2
:1000A800A30608000C30A30608001830A3060800B1
:1000B8003030A30608006030A3060800A30108003A
:1000C80003138312EE308E0085308F000C10BB03B3
:1000D800BC03BD03080003138316F5309200031315
:1000E80083128C1041187A28411408004110080026
:100200008A010A140F3982073F3406345B344F34B5
:1002100066346D347D3407347F346F3477347C3406
:1002200039345E3479347134E2212C22F8213322BE
:10023000072219220F30C500BB00BC001430C600D5
:100240000F30C7002330BD00421403138312061879
:100250004021C822DE2242184222C21852224219EC
:100260006022C2197022421A7E22C21A8C22421BBC
:100270009C22C21BAA224318B8222D1C6029642983
:1002800006184029AD0A080086184429A00A5821FA
:100290002008080006194A29A00350212008080058
:1002A000093020020319552908001430A000080065
:1002B0001530200203195D2908000A30A00008004B
:1002C000AD186C2968292729AD18702974292729A8
:1002D0002D19B729782927292D19BF2991292729CF
:1002E0002D19BF29A42927292D19BF297E2927299E
:1002F000091089100911AB01AC0127293E08A000A3
:100300000914891009118618442106194A21200868
:10031000BE00BA00CF212E08B2003408B800F12286
:1003200027293F08A00009108914091186184421C3
:1003300006194A212008BF00BA00CF212E08B200BA
:100340003408B800F12227294008A00009108910BC
:1003500009158618442106194A212008C000BA0050
:10036000CF212E08B2003408B800F1222729091441
:10037000891409158618C1210619CB212729AD0139
:1003800027298618C129AD013E08C5003F08C600CF
:100390004008C70027290619CB29AD012729B40138
:1003A0000A303A020318B40A0318BA000318D02915
:1003B000DA210800AE010130BA020318AE0A031CAC
:1003C0000800DB29031783168801890103138316AC
:1003D0008501061486140615861187018801890196
:1003E00003138312850186018701880189010800B2
:1003F0000313831681128111011581140114031353
:10040000831203138312FE3081000B1108000313C3
:1004100083121014901090111016901610130313DD
:10042000831203138312EE308E0085308F000C1080
:100430000800031383129214121412151217921645
:10044000121692150313831603138316F5309200C8
:10045000031383128C100800031383160F128F12DC
:100460000F170F140800031383128B170B178B162B
:100470000B11031383160C148C14031383120C102A
:100480008C100800C822DE22861105108513051580
:100490008515051706303C0203194F22080042104B
:1004A000C2140800C822DE22411C0511411805159E
:1004B00003303C0203195D220800C21042150800F7
:1004C000C822DE220511851446083D02031969225F
:1004D00008004211C2154608BC004707BB000800CF
:1004E000C822DE22851085110514851606303D02CE
:1004F00003197B220800C21142160800C822DE221E
:10050000411C85124118851603303D0203198922CA
:1005100008004212C2160800C822DE228512051603
:1005200047083B02031995220800C21242174708E8
:10053000BD004507BC000800C822DE2205120513D5
:100540008515861506303B020319A72208004213C1
:10055000C2170800C822DE22411C861141188615E8
:1005600003303B020319B5220800C21343140800EC
:10057000C822DE228611851745083C020319C122D4
:100580000800431042144508BB004607BD000800A0
:100590003B08BA00CF212E08AF003408B5003C0854
:1005A000BA00CF212E08B0003408B6003D08BA00CA
:1005B000CF212E08B1003408B70008003008002110
:1005C000A70036080021A80031080021A90037083B
:1005D0000021AA002F080021A50035080021A6004F
:1005E000080032080021AB0038080021AC000800E8
:04400E00C430FF3F7C
:00000001FF
